{
  "_format": "hh-sol-artifact-1",
  "contractName": "ApolloVault",
  "sourceName": "contracts/apollo-vault.sol",
  "abi": [
    {
      "anonymous": false,
      "inputs": [
        {
          "indexed": true,
          "internalType": "address",
          "name": "user",
          "type": "address"
        },
        {
          "indexed": false,
          "internalType": "bytes32",
          "name": "facialRecognitionHash",
          "type": "bytes32"
        }
      ],
      "name": "UserRegisteredWithFacialRecognition",
      "type": "event"
    },
    {
      "inputs": [
        {
          "internalType": "bytes32",
          "name": "facialRecognitionHash",
          "type": "bytes32"
        }
      ],
      "name": "getUserAddress",
      "outputs": [
        {
          "internalType": "address",
          "name": "",
          "type": "address"
        }
      ],
      "stateMutability": "view",
      "type": "function"
    },
    {
      "inputs": [
        {
          "internalType": "bytes32",
          "name": "facialRecognitionHash",
          "type": "bytes32"
        }
      ],
      "name": "registerUser",
      "outputs": [],
      "stateMutability": "nonpayable",
      "type": "function"
    },
    {
      "inputs": [
        {
          "internalType": "address",
          "name": "",
          "type": "address"
        }
      ],
      "name": "registeredUsers",
      "outputs": [
        {
          "internalType": "bool",
          "name": "",
          "type": "bool"
        }
      ],
      "stateMutability": "view",
      "type": "function"
    },
    {
      "inputs": [
        {
          "internalType": "bytes32",
          "name": "",
          "type": "bytes32"
        }
      ],
      "name": "userHashToAddress",
      "outputs": [
        {
          "internalType": "address",
          "name": "",
          "type": "address"
        }
      ],
      "stateMutability": "view",
      "type": "function"
    }
  ],
  "bytecode": "0x608060405234801561001057600080fd5b50610529806100206000396000f3fe608060405234801561001057600080fd5b506004361061004c5760003560e01c80630e50cee5146100515780632dc03259146100815780634a4e88841461009d578063bbd404db146100cd575b600080fd5b61006b6004803603810190610066919061033c565b6100fd565b6040516100789190610416565b60405180910390f35b61009b60048036038101906100969190610365565b61011d565b005b6100b760048036038101906100b29190610365565b6102a3565b6040516100c491906103fb565b60405180910390f35b6100e760048036038101906100e29190610365565b6102df565b6040516100f491906103fb565b60405180910390f35b60016020528060005260406000206000915054906101000a900460ff1681565b600160003373ffffffffffffffffffffffffffffffffffffffff1673ffffffffffffffffffffffffffffffffffffffff16815260200190815260200160002060009054906101000a900460ff16156101aa576040517f08c379a00000000000000000000000000000000000000000000000000000000081526004016101a19061044c565b60405180910390fd5b3360008083815260200190815260200160002060006101000a81548173ffffffffffffffffffffffffffffffffffffffff021916908373ffffffffffffffffffffffffffffffffffffffff16021790555060018060003373ffffffffffffffffffffffffffffffffffffffff1673ffffffffffffffffffffffffffffffffffffffff16815260200190815260200160002060006101000a81548160ff0219169083151502179055503373ffffffffffffffffffffffffffffffffffffffff167f2ae7facc8a7034360004f92ef1e13cfd28d96911d6fceab0e2df62e9fcfc65c3826040516102989190610431565b60405180910390a250565b600080600083815260200190815260200160002060009054906101000a900473ffffffffffffffffffffffffffffffffffffffff169050919050565b60006020528060005260406000206000915054906101000a900473ffffffffffffffffffffffffffffffffffffffff1681565b600081359050610321816104c5565b92915050565b600081359050610336816104dc565b92915050565b60006020828403121561034e57600080fd5b600061035c84828501610312565b91505092915050565b60006020828403121561037757600080fd5b600061038584828501610327565b91505092915050565b6103978161047d565b82525050565b6103a68161048f565b82525050565b6103b58161049b565b82525050565b60006103c8601a8361046c565b91507f5573657220697320616c726561647920726567697374657265640000000000006000830152602082019050919050565b6000602082019050610410600083018461038e565b92915050565b600060208201905061042b600083018461039d565b92915050565b600060208201905061044660008301846103ac565b92915050565b60006020820190508181036000830152610465816103bb565b9050919050565b600082825260208201905092915050565b6000610488826104a5565b9050919050565b60008115159050919050565b6000819050919050565b600073ffffffffffffffffffffffffffffffffffffffff82169050919050565b6104ce8161047d565b81146104d957600080fd5b50565b6104e58161049b565b81146104f057600080fd5b5056fea264697066735822122048c26c3ae2da6701b63a56242786a676c67ae5682454cd9695d69b86ab648b5a64736f6c63430008000033",
  "linkReferences": {},
  "deployedLinkReferences": {}
}